:020000040800F2
:10100000003C0020093E0008513E0008A94A0008A3
:10101000AD4A0008B14A0008B54A000800000000C7
:10102000000000000000000000000000B94A0008B5
:10103000BD4A000800000000C14A0008C54A000877
:10104000513E0008513E0008513E0008513E000844
:10105000513E0008513E0008513E0008454C000832
:1010600000000000C94A0008513E0008F14A00088B
:10107000A14B0008513E0008513E0008000000004E
:10108000214C0008513E000800000000E94B000818
:10109000094C0008F94B0008513E0008513E000879
:1010A000513E0008513E0008513E00081D4C00080A
:1010B000513E000800000000000000000000000099
:0C10C000513E000800000000513E0008F6
:1010CC0053B94AB9002908BF00281CBF4FF0FF31A3
:1010DC004FF0FF3000F00CB8ADF1080C6DE904CE08
:1010EC0004F00CFDDDF804E0DDE9022304B07047E8
:1010FC00704700BF10B5054C237833B9044B13B1BE
:10110C000448AFF300800123237010BD8408002035
:10111C0000000000305E000808B5034B1BB103490A
:10112C000348AFF3008008BD0000000088080020D1
:10113C00305E0008AF4BB04AB3F87CC018882DE97C
:10114C00F04FACEB00011588AC4C89B24A098D42CA
:10115C0087B02180628080F0E580A94D2D888D427A
:10116C0040F2E0805968DFF89C820F1AD3E9020143
:10117C00BFB2081A80B2BA422CBF002701278242A4
:10118C002CBF002101210591A160D3E90451A1EBF1
:10119C00050ED3E90651A1EB050AD3E908511FFA54
:1011AC008EFE1FFA8AFA7245A1EB050189B22CBF9B
:1011BC004FF0000E4FF0010E52452CBF4FF0000ABD
:1011CC004FF0010A8A422CBF002101210491616178
:1011DC00D3E90A51491B89B28A42D3E90C51A1EBDC
:1011EC00050189B22CBF002001208A422CBF0025AA
:1011FC0001250295E561D3E90E51491B89B28A425A
:10120C00D3E91051A1EB050189B22CBF00260126B0
:10121C008A422CBF4FF0000B4FF0010B0390A061E2
:10122C00019626626760C4F80CE0C4F810A0C4F8FC
:10123C0024B0D3E912514D1BD3E914618E1B00214C
:10124C00A8F80010D3E91A01ADB2B6B2AA42A1EBCC
:10125C00000189B22CBF00250125B2422CBF00260B
:10126C0001268A422CBF002101214FEA8108A1638B
:10127C00D3E91691A1EB0909D3E918011FFA89F9F1
:10128C00091A89B24A452CBF4FF000094FF00109E9
:10129C008A422CBF0021012148EAC1086163996F81
:1012AC000398C4F83090ACEB010189B28A422CBF90
:1012BC000021012148EA01082164D3E91C31CB1A31
:1012CC009BB29A422CBF00230123E36348EA4308F4
:1012DC00059B4D49A56243406B409A00049B0198C5
:1012EC00E6627B408BEA030342EAC30380EA0A020C
:1012FC0089EA0209029A43EA090382EA0E0986EA9C
:10130C00090943EA49090B787BB1404B1B7883B937
:10131C00C84513D0B4F8543000220133A4F854302B
:10132C0084F8482007B0BDE8F08F384B1A78002AB3
:10133C0076D0C8F10F085FFA88F8E9E7B4F84630C0
:10134C0030480133A4F84630236B0022012B028075
:10135C0004BF2F4A1370059B049A5B0243EA872350
:10136C00334343EA0E2343EACA1343EA8213039A34
:10137C0043EA4213029A43EA0213019A43EAC20374
:10138C0094F8482043EA8B0343EA4505FAB92F2D1C
:10139C0067DD94F84D30002B40F09A801D4E357867
:1013AC00002DBFD01C4B1B78002BBBD10B78002B16
:1013BC00B8D094F85030AB4200F09180042D84F8F2
:1013CC00505040F29780012384F84E30AAE7012A4E
:1013DC0078D0022A70D0032AA4D1252DA2D10F498E
:1013EC00B4F84A2094F84C008854002384F8483010
:1013FC0098E700BF840700206C070020CC03002076
:10140C00C403002004070020D80600201507002084
:10141C00FE0600202A070020C3060020FC04002042
:10142C00019303F071FD019B704918B394F84420AB
:10143C000132D2B2642A84F844201BD901221A70DA
:10144C00D4E90173059363690493A3690393E36976
:10145C000293236AE66A0193D4E903EAD4E909B555
:10146C0067E76B1E2E2B16D8614B624E1A80EDB2BD
:10147C00357097E7D4E90172059262690492A2690A
:10148C000392E2690292226AE66A0192D4E903EAC3
:10149C00D4E909B53AE7002D80D194F84F3054497E
:1014AC00544A012B4FF0000308BF84F84D500B80B9
:1014BC00137084F84E3035E7032384F84C5084F8CD
:1014CC0048302FE70223A4F84A5084F8483029E723
:1014DC004749484B0D801A7084F84E2022E7042DA2
:1014EC0008D994F84E300133DBB2052B84F84E301A
:1014FC007FF618AF0023013D84F84E30232D16D80B
:10150C00DFE805F0126F6B67635F58514D49154169
:10151C00332B1515151515241F1515151515151522
:10152C00151515151515151B334B01221A70334A59
:10153C003178117000233370F4E6012384F84830BD
:10154C00F5E72F4A2F4B527C1A70F0E72C4B2D4AA3
:10155C005B7CC3F101031370E9E7002240F6FF63E3
:10156C0084F85120A4F85230E1E794F84F3001216F
:10157C004FF460628B4284F85110A4F85220D6D1FB
:10158C0084F84D30D3E700F041FB1D4B1A4A5B7CCD
:10159C0001331370CBE71A4B01229A74C7E7184B2F
:1015AC0000229A74C3E71649164B01200022487496
:1015BC001A70BCE71249134B0020012248741A70B0
:1015CC00B5E7114B01221A70B1E70B4B05221A70CB
:1015DC00ADE7094B04221A70A9E7074B03221A70D6
:1015EC00A5E7054B02221A70A1E700BFD806002020
:1015FC00C40600202A070020DE0600202B0700204E
:10160C00FC0400202B0000201807002030B53B4DB7
:10161C00B5F85230002B40D000221846A5F85220C5
:10162C001A0A82EA13125340DB4303F00F0343EA16
:10163C000013334AEB6503F00F001913145C515C73
:10164C00304844EAC134C3F30321C3F30313515CA0
:10165C00D35C2D4A92F800E044EA812444EA431416
:10166C0005EB8E03802200EB8E009A6611462C66E9
:10167C00043013224FF0010C0CFA02F32340D34038
:10168C0083EAD111013AC901531C40F8041FF3D16C
:10169C0005EB8E0500236B6630BD1C4A1278B2B187
:1016AC00C20B16D18213012A1ED04213012A19D063
:1016BC000213012A1AD0C212012A1BD08212012A4B
:1016CC0016D04212012A17D0AB650346A8E74FF695
:1016DC00FF700F22083A40FA02F343EA4220AA654F
:1016EC0083B29DE70D22F5E70E22F3E70C22F1E71A
:1016FC000A22EFE70B22EDE70922EBE7CC030020EF
:10170C00485E000830040020C7030020C3060020F8
:10171C0030B5039C05468D4209DC13E0A34213D07F
:10172C00B1EB6C0F0DD0754510DC0446724601EB25
:10173C00020C181995424FEA6C0E4FEA6000EDDB73
:10174C00204630BD9542FBDA184630BD0EF1010142
:10175C000346E0E70346401A48BFC81A704700BF6B
:10176C0004494A6A80B292B24B6A9B1A9BB283427A
:10177C00FAD370470048014000F1FF3C58B10649CC
:10178C004A6A92B24B6A9B1A9BB2B3F57A7FF9D331
:10179C00BCF1010CF4D2704700480140002965D01F
:1017AC000139421E50FA81F1002027E0C3B240B249
:1017BC00002831DB5800C3B240B2002833DB58009C
:1017CC00C3B240B2002835DB5800C3B240B2002887
:1017DC0037DB5800C3B240B2002839DB5800C3B223
:1017EC0040B200283BDB5B00D8B25BB24000002B60
:1017FC00B8BF80F007008A42C0B236D012F8013F61
:10180C00584010F0800F4FEA4000CFD080F0070313
:10181C0058B20028DBB2CDDA5B0083F0070358B274
:10182C000028DBB2CBDA5B0083F0070358B2002848
:10183C00DBB2C9DA5B0083F0070358B20028DBB2D5
:10184C00C7DA5B0083F0070358B20028DBB2C5DAB5
:10185C005B0083F0070358B20028DBB2C3DA5800F0
:10186C0080F0070043B2C0B2C0E77047084670472B
:10187C00026803FB03F303EB430C22EA0C0201FBAB
:10188C0003F313430360704703FB03F310B40468C2
:10189C0003FB01F103FB02F203EB430324EA030411
:1018AC000C430460C16810BC21EA03031343C360FA
:1018BC00704700BF10B50C4CBDF808C0A170090AE8
:1018CC006170110AE170190A2070227161714FEA7E
:1018DC001C2209212046A371E27184F808C0FFF78D
:1018EC005DFF607210BD00BFC804002070B50B4CCA
:1018FC000B4E04F13005B64620686168A268E368B7
:10190C00F446ACE80F001034AC42E646F4D104487F
:10191C003021FFF743FF86F8300070BDFC04002037
:10192C00C8040020BFF34F8F0549064BCA6802F468
:10193C00E0621343CB60BFF34F8F00BFFDE700BFE6
:10194C0000ED00E00400FA0530B5A94CA94D204685
:10195C00296883B0C02203F01FFAE37D207E032B9D
:10196C0084BF0223E375A0F10803282B3BD8A0F118
:10197C001803182B40F2F680A0F10C030B2B40F24D
:10198C000281A0F10803032B40F20E81A8889A4B28
:10199C00D862637EA3F13202642A2ED8227D002AFB
:1019AC0040F0D6805A0802F10A015B002B816A8153
:1019BC00A981A37E03EB8303DB0014330220EB81AC
:1019CC0002F044F86378EBB9E8894FF4FA730093AA
:1019DC0040F6B8324FF47A734FF49671FFF798FED5
:1019EC00E88403B030BD844A41F28733EB80D36284
:1019FC00637EA3F13202642AD0D9962255232A8120
:101A0C006B81D6E7A07F0B2888BF052002F01EF85B
:101A1C0094F8213094F8202094F8221094F82300A4
:101A2C00A87503F26B335B006B8294F82430A3F13E
:101A3C000103B3FA83F35B0984F8C03094F82830BF
:101A4C00053B142B84BF052384F8283094F82930E7
:101A5C0002F27712013B092B4FEA420288BF0A239C
:101A6C002A8294F8252088BF84F8293094F82A30EB
:101A7C00FA3201F25E512A835A1EA982082A4FF0CB
:101A8C00000184F8271047D90A2384F82A3094F8E7
:101A9C002B30463B462B84BFFF2384F82B3094F825
:101AAC002C30013B622B9CBF012384F8C13094F88D
:101ABC002D30013B092B84BF052384F82D3094F87D
:101ACC002E30092B06D8042B0CD8DFE803F0038A40
:101ADC00860B7D00494A0023012184F8C23084F82A
:101AEC00C3301170E889464AE47EB0F5967F3CBF5E
:101AFC00002385F82030434BA2FB0012A3FB0013FC
:101B0C0052092021DB08B1FBF4F1B2FBF1F2B3FB7B
:101B1C00F1F36A84AB8458E7C3EB4312C3EB820343
:101B2C005B001A3BDBB2C82B4AD8AB769AB2298938
:101B3C0011442981698911446981A98B1144A983B4
:101B4C00E98B0A442C49EA834A6C13434B649EE7A5
:101B5C002C4A2B81A2FB03235B0803F10A026B8145
:101B6C00AA8126E740F6C3130093302241F2873353
:101B7C001821FFF7CDFD0346207EAB80A0F10C03AE
:101B8C000B2B3FF6FEAE41F287330093182242F244
:101B9C000E730C21FFF7BCFD0346207EAB80A0F139
:101BAC000803032B3FF6F2AE41F649530093102283
:101BBC0043F695230721FFF7ABFD80B2A880E6E63C
:101BCC00C8221346AA76B2E70F490C4A01230B70C0
:101BDC000021117084F8C23084E7012384F8C330EB
:101BEC0080E7064A012384F8C23013707AE700BFFD
:101BFC00FC04002000000020002C014019040020EF
:101C0C001F85EB51ABAAAAAA1B040020044B054864
:101C1C0093F828C01A6880F801C0C02103F060B89E
:101C2C0000000020FC04002038B5334D95F82B3013
:101C3C00012B51D095F82C30304C5A1E12F0FF026B
:101C4C0038D085F82C2003F0010385F8293072B6C2
:101C5C0094F89B31002B3AD062B603F01BF8D4F801
:101C6C009C21296B40F6C4139A4284BF012385F84A
:101C7C002D3095F82C3004EB43030022A3F8A2116D
:101C8C00B4F8A601B4F8A431B4F8A81184F89821DA
:101C9C000344B4F8AA0184F8A0210B44B4F8AC11A5
:101CAC0003440B44B4F8AE110B4404335B10C4F87A
:101CBC00B03138BD0123062285F82C2084F89A31E6
:101CCC0085F8293072B694F89B31002BC4D195F865
:101CDC002C0003F0D3FBBFE795F82C20074C013206
:101CEC00D2B2062A99BF85F82C2002F0010385F8A0
:101CFC002C3084F89A31A8E700000020FC04002066
:101D0C001C4AD36823F0010310B51B4CD360FFF7BA
:101D1C008BFF1A49B4F8B601B4F8B4210B6B02442A
:101D2C0003EB520394F82F2058080863C2B991F8BA
:101D3C003420180912FB00F292B291F82D10A4F87D
:101D4C00BA21C2EB9303A4F8BC3181B1D4F8C031F1
:101D5C0042F20F7293429CBF0133C4F8C03110BDE4
:101D6C0094F8B82100FB02F2C2F38F12E5E702F0FF
:101D7C0089FFEBE700440140FC0400200000002038
:101D8C0070B5274ED6F89C317D2B15D9254B5B6A47
:101D9C007C2B09D8B6F8C431B3F5167F04D2D6F82B
:101DAC00C031B3F5FA7F19D396F8C6310133DBB2E3
:101DBC00642B86F8C6312CD81B4D95F83530002491
:101DCC0023B90CE095F83530A34208DD02F046FF4C
:101DDC0095F82930834204F10104F3D170BD72B639
:101DEC0002F044FF0F48B6F8BC11426A0F4BB6F82C
:101DFC00B641A6F8B62101310022A6F8B4414262E0
:101E0C005A62D9621A61DA6842F00102DA6062B68B
:101E1C0070BD02F02BFF0023C6F8C03170BD00BFAF
:101E2C00FC04002000100040000000200044014091
:101E3C0070B5A84CA37C82B0002B66D094F8C2304D
:101E4C00002B00F09D80A44DB4F8C821B2F5836F2F
:101E5C0080F09A81A2F130039BB2B3F57A7F10D255
:101E6C00617C95F82B60C1F10100864200F03E8345
:101E7C0095F836105B009BB2C1F12F010B44A4F80E
:101E8C00CA312F2A46D8002394F8CF21A4F8CA319E
:101E9C0084F8CE3195F837309A4241D8E67C002E42
:101EAC0051D0B4F8CA011D2800F2D2800023A4F846
:101EBC00D03194F8283003EB8303B0EB830F4FEA57
:101ECC00830180F2D18094F8CD31002B39D194F874
:101EDC00DC31002B35D0E27CB4F8D00150232E211C
:101EEC0013FB02138342C0F2FB8094F8E231002B07
:101EFC0000F0B581013B042B00F2AE81DFE813F05A
:101F0C00AA01F302F002ED02AA01B4F8C831724D35
:101F1C00A4F8CA3194F8CF2195F837309A42BDD93C
:101F2C00A37D002BBAD003F06BFA02F09FFE662360
:101F3C0084F8CF3194F8CD310022A4F8D021002BB5
:101F4C00C5D002B070BD94F8D231002B7BD094F880
:101F5C00D331002B40F02D81D4F8D8215F49D31711
:101F6C0081FB0212C3EB22339BB2B3F5006FA4F8D2
:101F7C00D031C0F09E8140F2FF73A4F8D031A2E7BB
:101F8C0094F82620544DB4F8C801002A75D0AE7DC3
:101F9C00760006F57A7188421CDD667C95F82B205C
:101FAC00B24200F0778294F89B31002B40F04C81C8
:101FBC00002384F8CC3140F2FF7300934FF4FA62A3
:101FCC002F23FFF7A5FBAE7D0346B4F8C801A4F898
:101FDC00CA317600C6F57A72824221DD637C95F8AF
:101FEC002B60C3F101018E4200F0668294F89B31A4
:101FFC00002B40F029812F230021009340F2FF7326
:10200C0084F8CC11FFF784FBAE7D03467600B4F860
:10201C00C801A4F8CA31C6F57A739842C0F214818B
:10202C0006F57A76B04200F30F8194F89B210023D9
:10203C00A4F8CA31002A00F00781012284F89B31F0
:10204C0084F8CC2100E1B4F8CA31A4F8D0313AE7D5
:10205C001E283FF42EAF94F8282002EB8202920047
:10206C0090421146C0F2C48040F2FF720092A0234D
:10207C00FFF74EFBA4F8D00125E7AA7D520002F52C
:10208C007A71884240F3C080637C95F82B209A4289
:10209C0000F0DC8140F2FF7300934FF4FA622F23BF
:1020AC00FFF736FBAB7D02465B00B4F8C801A4F821
:1020BC00CA21C3F57A72824200F3AB8003F57A73BE
:1020CC008342C0F2C1800023A4F8CA3184F8CE3117
:1020DC00BAE000BFFC04002000000020AD8BDB68E0
:1020EC0094F8C731002B00F02581002A00F01681EE
:1020FC006B894FF4FA620092283340F2FF72892107
:10210C00FFF706FBA4F8E00194F82630002B40F012
:10211C00F580E07CB4F8D01184F89B3150222E234A
:10212C0012FB003399427FF7E0AE2E2907D9627F6C
:10213C001E231341D4F8C021934200F25B81B4F802
:10214C00E031B5F86A209A423CBFA4F8E02113466E
:10215C0094F8C12032B1B5F96C209342C4BF93B24C
:10216C00A4F8E031D4F8EC21002A7FF7EAAE2F294D
:10217C007FF6E7AEC548D11780FB0202C1EB2232D5
:10218C001344A4F8E031DCE6637C95F82B109942FB
:10219C0000F0C58195F83600A2F58361490089B23B
:1021AC00C0F12F00A2F1300301449BB2A4F8CA1174
:1021BC0053E6D5E90E32B4F8CA0100922F2140F251
:1021CC00FF72FFF7A5FAB4F8CA21B14B93FBF0F3F9
:1021DC00E07E2E2A4FEA500093FBF0F3A4F8D431A2
:1021EC003FF6BAAEA4F8D0612E64C4F8D8616AE6A2
:1021FC00A02300931E212F23FFF78AFA0346A4F88D
:10220C00D031B4F8CA0154E6C2F57A729042BFF6E6
:10221C005AAF637C95F82B60C3F101018E4200F03C
:10222C00F8802F230093002140F2FF73FFF770FA20
:10223C00AB7D02465B00B4F8C801A4F8CA21C3F513
:10224C007A729042BFF63AAF94F8C230002B3FF44A
:10225C0061AEF9E501F038FD002384F8E231237D0D
:10226C0073BB94F8C721A4F8E031002A00F0AE80CB
:10227C0094F82630002B4BD094F89B31B3B1B4F8C2
:10228C00C8114FF47A70FFF765FAAA8800F57A73D3
:10229C009BB2013A9342A4F8E431C0F2878103F077
:1022AC0085FA94F89B61002E7FF44BAEB4F8D011F4
:1022BC003BE72F2B3FF607AE3023A4F8D03102E6D4
:1022CC0094F8C731002B48D1227FC4F8C0310126C5
:1022DC0085F82D6084F89931002A3CD0E07C0028E8
:1022EC003CD194F8293003F2DE335B00A4F8E431DE
:1022FC0003F04EF8E07C84F89B6131E0E17C2E2207
:10230C00502313FB0123B4F8D0219342BFF6EDAD5B
:10231C0094F89B61002E7FF414AEC7E74FF4FA6279
:10232C0000926B8940F2FF722F21FFF7F1F9A4F8AC
:10233C00E001E9E603F064F895F82D30002B00F08D
:10234C0029812B89E27CB4F8D001A4F8DE3101217B
:10235C0084F8C711C9E603F053F8E07C94F89B614C
:10236C0095F82C30013BC3EB0312B5F8683003EB46
:10237C0082031AB2B2F5B47F9BB2A6BFA3F5B473B5
:10238C009BB2A4F8E62103F1770212B2A8BFA4F81D
:10239C00E631B2F5B47FA8BFA3F1F102A4F8E821AD
:1023AC0003F1EF0212B2B2F5B47FA6BF793BA4F8E9
:1023BC00EA31A4F8EA210023012808BF84F8CD01F2
:1023CC00A4F8E031002E7FF4BCAD6FE7237FC4F896
:1023DC00C021012185F82D10002B40F0E18094F8EC
:1023EC009B31002B00F0DF8094F82630002B7FF41B
:1023FC0046AFA6E5B4F8E0312A8993423CBFA4F875
:10240C00E0211346EA8B9A423CBFA4F8E021134624
:10241C0097E6E88C296B884280F0A880B4F8C41148
:10242C00C72900F2A3800122002685F82D20C4F8CC
:10243C00C06185F82B3002F019FCAA7DB4F8C801F4
:10244C0084F8CE615200C2F57A72EAE6E88C2A6B07
:10245C00904280F09580B4F8C421C72A00F2908095
:10246C00C3F101030026012285F82B30C4F8C061AA
:10247C0085F82D2002F0FAFBA97DB4F8C80184F888
:10248C00CE61490001F57A7104E600BFAD8BDB68C3
:10249C000087930394F8CC61A4F8CA314FF0010C77
:1024AC0084F89BC1002E3FF4CFAEACEB020284F853
:1024BC009B3185F82B207BE594F8CC6100214FF003
:1024CC00010CA4F8CA1184F89BC1002E3FF4BCAED9
:1024DC0085F82B3084F89B118DE501F087FBBBE66A
:1024EC0001F052FCB8E601F01FFCB5E6EA8C2B6B50
:1024FC009A422DD2B4F8C431C72B29D80123002617
:10250C0085F82D30C4F8C06185F82B1002F0AEFBB5
:10251C00B4F8C82184F8CE61A2F13003A8E4E98CA8
:10252C002A6B91421BD2B4F8C421C72A17D80122B6
:10253C00C3F10103002685F82D2085F82B30C4F853
:10254C00C06102F093FBB4F8C82184F8CE6121E697
:10255C0094F8CD31002BD1D1A4F8C83193E494F880
:10256C00CD21002AE3D1A4F8C8218CE494F8CD1134
:10257C0000297FF458AF4FF47A70A4F8C80150E6E4
:10258C0094F8CD21002A7FF46BAF4FF47A70A4F845
:10259C00C8017FE594F8C7315BB102F073FBD0E65C
:1025AC0003F004F964E602F02BFF61E602F0F0FEA2
:1025BC00AEE6FFF739FB054B42F2107141F288325F
:1025CC0029635A62012384F8C731E6E70010004002
:1025DC0010B50E4C94F8F031012B0DD0022B03D01A
:1025EC00BDE81040FFF724BCB4F8B001FFF70EF8BB
:1025FC00002384F8F03110BDFEF79CFD002384F815
:10260C00F031BDE81040FFF713BC00BFFC04002004
:10261C00F8B54F4E4F4F96F82B10002977D1B7F8DD
:10262C00E63101331AB2B7F8E8310133B2F5B47FB1
:10263C001BB2B2BFA7F8E621A7F8E6110A46B3F51C
:10264C00B47FA8BF0023A7F8E831B7F8EA3101330B
:10265C001BB2B3F5B47F77DAA7F8EA3106EB420286
:10266C00B6F84013B2F97030B0883B4D3B4C0B447C
:10267C0000FB03F385FB0312D81797F82D30C0EB42
:10268C00E21003FB00F0C31784FB0020C3EBA00097
:10269C0080B202F0DFFDB7F9E831B6F8400306EB83
:1026AC004303B3F9702097F82D300244B08800FB37
:1026BC0002F285FB0201D017C0EBE11003FB00F026
:1026CC0084FB0023C017C0EBA30080B202F0C8FD4E
:1026DC00B7F9EA31B6F8400397F82D2006EB43031F
:1026EC00B3F970300344B08800FB03F385FB03158A
:1026FC00D817C0EBE51002FB00F084FB0034C017C8
:10270C00C0EBA40080B2BDE8F84002F0AFBDB7F852
:10271C00E621B7F8E831013A12B2013B1BB2002AAC
:10272C00B8BF40F26712002BB8BF40F26713A7F88E
:10273C00E831B7F8EA31A7F8E621013B1BB2002BD0
:10274C00B8BF40F2671387E70023A7F8EA3185E7A3
:10275C0000000020FC040020D34D62106766666602
:10276C0038B5234D23492A6B4B6A234C02EB4202AA
:10277C0012FA83F2A4F8B63100234B6253095B00C2
:10278C009BB2A4F8BA31C3EBD20392082A63D4F8F3
:10279C00C0219BB2042AA4F8BC3126D94A6A9A42B9
:1027AC00FCD3FFF741FAD4F8C031607F94F82610BF
:1027BC000022013384F8982184F8992150EA01020F
:1027CC00C4F8C03104D12B6BB3F5FA6F06D338BD06
:1027DC00132BFCD92B6BB3F5FA6FF8D8002385F8C3
:1027EC002D30BDE8384002F04DBA4B6AD9E700BF36
:1027FC000000002000100040FC040020F8B5804CC4
:10280C00B4F8F411B4F8F201B4F8F62194F8DC3110
:10281C00B4F8E051A4F8C4510131A4F8F41194F8BF
:10282C00F811013001320B43A4F8F201A4F8F6219F
:10283C003ED194F8F921002A3AD0B4F8CA51002DAF
:10284C0040F0C781B4F8FA3101339BB244F62061F1
:10285C008B42A4F8FA312BD9B4F8FC311E2B40F280
:10286C005F8294F8C030012184F8DC11002B00F059
:10287C005C82B4F8FE1163484B08A0FB0323DB0910
:10288C00B1F5B97F84F8F8310DD35F4F4AF6AA261B
:10289C0001F0E4F96420FEF76FFF94F8F8313E6024
:1028AC000135AB42F4DC94F8C3300BB984F8263014
:1028BC00E17F79B1554BB4F8002293F84233013BD8
:1028CC0001320B4492B203EB8303B2EB830FA4F8F7
:1028DC00002258DC94F8CD61002E36D14B4D95F882
:1028EC002D3023B194F8C731002B40F05181B4F84E
:1028FC00F631142B2FD895F89C33002B4AD1B4F811
:10290C00C41194F8DC3123B194F8C731002B40F09A
:10291C002E8194F89B31E888002B66D0B4F8E42122
:10292C00AB883B4E00FB02F25D1C86FB0236D317D4
:10293C00A3EBE6132B449BB2A4F80632354AA4F859
:10294C00DE11C2E90D33D062D363B4F8083201331F
:10295C00A4F80832F8BD94F8C1300022A4F8F6218E
:10296C00002B59D094F8C731002B40F05481637F71
:10297C00002BC0D194F8D231002BBCD094F8C731C5
:10298C00002BB8D098E00122002384F80222A4F88E
:10299C0000329FE7D4F8C031952BB4F8DE3140F209
:1029AC00CD80952B40F2CA80D4F89C21B2F5FA7FE9
:1029BC008CBF0621102108460A4685F89D13B4F8F1
:1029CC00C411CE1A864240F3C48013442A6B99B2C8
:1029DC00B2F5FA7FA4F8C41140F2FE80E37D85F8CD
:1029EC003430012285F89E238BE7094A00FB01F362
:1029FC00A2FB0323C3F3CF13A4F806329EE700BF58
:102A0C00FC040020B9D31FB10030004000000020AE
:102A1C00D34D6210002C0140637F002BAAD094F898
:102A2C00C731002B3FF467AF2B6BB5F87023D5F88B
:102A3C008413D5F87C039A1AD5F89433C5F874230B
:102A4C0000FB02119942C5F88413C4BF1946C5F89E
:102A5C0084335B428B42C4BF1946C5F88433D5F826
:102A6C008C33D5F88003C5F88C23D31A00FB03F301
:102A7C00D5F87803C5F8883300FB0233D5F89823D2
:102A8C000B449342C5F89033C4BF1346C5F890234A
:102A9C0052429A42D4F8EC11C4BFC5F890231346A5
:102AAC00A54A0B44934240F32181C4F8EC2194F8DD
:102ABC00D231002B3FF41FAFD4F8B031B4F8D4218D
:102ACC00296DA86C9A1A2B6E2A6400FB021199428C
:102ADC002965C4BF19462B655B428B42C4BF19469E
:102AEC002B65AB6DE86CAA65D31A00FB03F3686C1D
:102AFC006B6500FB02336A6E0B449342EB65C4BFFB
:102B0C001346EA6552429A42D4F8D811C4BFEA651A
:102B1C0013468A4A0B44934240F3FC80C4F8D821F4
:102B2C00D4F8C031632B3FF6E6AE95F89C33002207
:102B3C002A65002B3FF4E3AEB4F8DE3102210846DF
:102B4C000A4685F89D13B4F8C411CE1A86423FF795
:102B5C003CAF5E1A864243DD9B1A99B2E27DA4F823
:102B6C00C411002385F89E3385F83420C9E6B4F8E7
:102B7C00D0312F2B7FF6CDAEE888714A00FB01F3E4
:102B8C00A2FB0323DB0901339BB2A4F80632D5E682
:102B9C0002F06CF802F062F895F829303BBB002883
:102BAC0000F0AA8094F89831013384F8983194F8A5
:102BBC00A031002B7FF49BAE94F8982195F8443308
:102BCC009A427FF694AE012384F8A031FFF7C8FD3A
:102BDC008DE6A4F8FA316BE6002385F89E3390E677
:102BEC00E27D85F83420002385F89E3389E60028A1
:102BFC006FD194F89831013384F8983194F8A0315E
:102C0C00002B7FF474AE94F8982195F843339A42D4
:102C1C007FF66DAED7E794F82C20B4F90432D5F8D2
:102C2C005813D5F8500302EB820202EB8202A3EB9D
:102C3C00C202D5F86833C5F8482300FB021199424B
:102C4C00C5F85813C4BF1946C5F858335B428B42BC
:102C5C00C4BF1946C5F85833D5F86033D5F85403BA
:102C6C00C5F86023D31A00FB03F3D5F84C03C5F861
:102C7C005C3300FB0233D5F86C230B449342C5F84C
:102C8C006433C4BF1346C5F8642352429A422D499B
:102C9C00C4BFC5F864231346DA1781FB0313C2EBD8
:102CAC002332B5F86C3069899B1A1BB28B42A5F89C
:102CBC006C30BCBF0BB2A5F86C30B3F5FA6F03DD0A
:102CCC004FF4FA63A5F86C30637F002B7FF4ACAE45
:102CDC00EDE694F8993195F82A200133DBB29A424B
:102CEC0084F899318AD284F8986100E6002B1FDCB5
:102CFC000023C4F8EC31DAE694F8993195F82A20DF
:102D0C000133DBB29A4284F89931BFF450AF84F8A6
:102D1C009801ECE5002BB8BF0023C4F8D831FFE6CE
:102D2C0084F8F951A4F8FA51C2E500F097FFBAE51E
:102D3C00C4F8EC31BBE600BF60E31600F058380174
:102D4C00D34D6210AD8BDB682DE9F04F85B002F0EE
:102D5C00EBF84FF47063C04AD3F8E010914205D100
:102D6C00BE4AD3F8E410914200F0BF83BC4DBD4C79
:102D7C0002F0B6F902F090FAFEF7E6FDE378022BCA
:102D8C0000F0FC83B849B94AB94B63600220E0708B
:102D9C002020C4E9021295F8283020742A68B14822
:102DAC006370C02101F09CFF637C227DA988E980BF
:102DBC00013B18BF012385F82B3002B9E27494F85B
:102DCC00263093B16989AA892B89323101204FF4BD
:102DDC007A766981323232330021AE8385F8200055
:102DEC00C4F81200A175AA812B8100F0BDFE00234E
:102DFC00A4F8FC3102F0D6F89E4B4AF6AA221A60CF
:102E0C0001F0FEFF94F8D33113B1012384F8D231D1
:102E1C0002F082F8974FDFF860B2DFF860A2DFF8BB
:102E2C006092DFF860824AF6AA26D4F8C021637D4E
:102E3C00052A34BF06220322012B85F8442385F88A
:102E4C0043233E6000F06C82022B00F0A381B4F8A7
:102E5C00083242F21072934209D994F8DC1100291D
:102E6C0040F02A8349F64042934200F24A83B4F878
:102E7C00F22144F620639A421BD9B4F904221304BC
:102E8C008BFB03011944DB17D4F80C02C3EB212391
:102E9C009AF8001003440229C4F80C3200F0B782EF
:102EAC00032900F0A682012900F099820023A4F8DE
:102EBC00F231D4F8C021B2F57A7F40F2278100219B
:102ECC00B4F8CA3184F8CF11C72B40F21582E17CDB
:102EDC0011B19F2B40F2268194F81112002900F0B9
:102EEC000E81B3F5C87FC0F02481D4F8B03194F8CA
:102EFC009A0188FB03C1A1EBE371C4F89C1110B1DA
:102F0C000A2A00F2328294F81932002B00F08180E8
:102F1C002B6B322B7DD95C4B1022002183F80B13C9
:102F2C0083F8152383F80C2394F80232002B7DD1FF
:102F3C0094F81C22002A40F0E98194F81D320133E8
:102F4C00DBB2C82B84F81D3200F25C8194F8CD21E1
:102F5C00002384F8C631002A40F09E8094F8C731D3
:102F6C004A4AD4F8B0114A4892FBF1F213FB02F32F
:102F7C009BB2A0FB032095F82020A4F81A32C008BD
:102F8C00A4F82A02002A40F01F824FF4FA63A5F835
:102F9C006A3094F82B1094F810028142C0F0D8815A
:102FAC00D4F8C031632B00F209812B6BB3F5FA7F97
:102FBC0040F204810C2385F8353094F82F30002B27
:102FCC0040F01381334A526A4AF6C8739A427FF62C
:102FDC002CAF94F8C731012B7FF427AF94F8CF2195
:102FEC000393013284F8CF2101F040FE039B85F856
:102FFC002D30B4F8D0312F2B05D8002384F8C731ED
:10300C0041F288332B630023C4F8C031FFF7A8FBCF
:10301C000BE71D4B0022102183F80B1383F81523AB
:10302C0083F80C2394F80232002B81D0B4F90E32C1
:10303C00B4F81A12B4F8042294F8100200919BB25E
:10304C00B4F8FE11FEF736FC0A2002F043FC002314
:10305C0084F8023271E700BFDAE32559D963B84E20
:10306C0000000020FC0400205243204634204B205A
:10307C001248414B00300040B7600BB61D040020D5
:10308C001F85EB515655555500E100E0C02709004E
:10309C00CDCCCCCC00100040B4F8D021302A50D983
:1030AC0094F8DC1100294CD0313A572A00F2BB813C
:1030BC0094F82C22002A40F03E82FFF7A9FA94F8EB
:1030CC001BE0B4F8D0017822302141F6583340F29D
:1030DC002A3CB3FBFEF3BCFBFEFCCDF800C0FEF7B4
:1030EC0017FBA5F8A40380B2FEF73AFBB5F8A423AE
:1030FC004FF41673B3FBF2F3A4F81A3295E6952B42
:10310C0094BF64230A2385F83730EEE6B4F8CA314D
:10311C009BB9642A84F8CF3100F2EE80E17C00295F
:10312C003FF4DAAE002184F8CF1194F81112002983
:10313C00E5D0002384F8CF31D7E6642A7FF6C7AEFA
:10314C00C2E6237F012284F82C22002B00F0F380AE
:10315C00AB8894F82900A3F1130101EB4001E88836
:10316C0089B2A4F8C41100FB01F1B1FBF3F11344D3
:10317C005B1AA4F8063202F00BF9012284F89B21A9
:10318C00C64BB4F80622DA63C3E90D220023A4F877
:10319C001A324AE6D4F89C31A3F16502942A05D878
:1031AC0003EB430203EB8203EB8050E6013B622B03
:1031BC0000F2C88040F21453EB8048E60C230093D5
:1031CC00D4F89C0103234FF4FA726421FEF7A0FAA1
:1031DC002B6B85F83500312B9CBF022385F83530DD
:1031EC0094F82F30002B3FF4EDAE17230093B4F876
:1031FC00C4010D234FF4FA626421FEF789FA84F8B6
:10320C00B801DFE601F094FB0121A54800F03EFF78
:10321C00B4F81E0201F02CFCB4F82222A4F820020F
:10322C0040F6E44303FB02F29E4B84F81002A3FB2E
:10323C000213D21A03EB5203B5F8A023B4F894018D
:10324C00DB0A02FB03F3A9FB0313B4F8FE2194F889
:10325C00C810C2EBC20204EB410C02EB5313013158
:10326C00D4F8C420BCF8CCE0ACF8CC00C9B26329CB
:10327C00024488BF0021A2EB0E0284F8C810C4F8E7
:10328C00C420A9FB0212520991B2A4F8962140F66F
:10329C00E442C4F8241202FB01F1834AA2FB01218F
:1032AC0041F30F210029BCBF0022A4F8042294F89A
:1032BC00C020A8BFA4F80412DB10A4F8FE3112B38E
:1032CC0094F8F821298B9BB201FB02F29A4217DD8C
:1032DC00B4F8283294F8CD217448013344F62061B7
:1032EC009BB200FB02118B42A4F8283200F335810B
:1032FC00002384F81D322BE6002184F8CF11E6E57B
:10330C000023A4F8283294F8CD21F1E70393FEF7BB
:10331C00EDFA312002F0DEFA039B84F81C320CE645
:10332C00AB880093286B5B08C8226021FEF7F0F98C
:10333C00637DE88088E5594AC2E90D33D36302F016
:10334C005FF823E7F82B84BF40F6B243EB807EE5B1
:10335C00B5F8A233012200925B0801F10A020A3986
:10336C00FEF7D6F9A5F86A001AE6D4F81402FEF7AF
:10337C00F1F9D4F89C31B0EB530F1AD9B3F5FA6FBD
:10338C0017D294F81822013284F81822A27C00215A
:10339C00C4F8C0119AB9B4F8D0212F2A0FD9002241
:1033AC0084F8C7212A895208A4F8DE21012285F865
:1033BC002D20002284F89A21C4F81432A3E52A6B3C
:1033CC00B2F57A7FEED9EAE7B5F8A2330093AB8B6E
:1033DC00AA8C698CFEF79CF9A5F86A00D9E594F8DB
:1033EC001032334A43F40073138002238AF80030FE
:1033FC005CE5B4F8FE312E4AA9FB0313C3F3C703F3
:10340C0043F48063138001238AF800304EE5D3B275
:10341C00A9FB03231B09264A43F4C063138003232F
:10342C008AF8003042E5012284F82C22FFF7F0F8EC
:10343C00B4F8D021C82A05D90023A4F8E6315023CA
:10344C00A5F8A433B5F8A403FEF78AF9B4F9E6316C
:10345C00002B7FF4EAAC174984F8CD31012284F8B3
:10346C009B3142F228332B63C4F89C31C4F81432DC
:10347C0085F82D204B6284F8C721637F95F8A6232D
:10348C0085F82C201422C4F8C02113B1AB89A4F800
:10349C00DE31FEF7C9FB01F0EFFEC6E4002C014063
:1034AC000024014001011000FF04EC4F7CFCFFFFE5
:1034BC001E0400200010004001F0A2FF394B002533
:1034CC00C3E90D55DD6384F8DC51A4F8D05184F8C0
:1034DC00F951A4F8FC5101F0D7FE33484FF4807237
:1034EC00294602F097FCFEF71DFA93F8EC302F4DAD
:1034FC002B2B53D0352B4DD01F2B04BF2C4B2B60BB
:10350C0035E4039101F07CFF0399264B84F8DC1120
:10351C00C3E90D11D963A4F8D01184F8F911A4F8FA
:10352C00FC11039101F0B0FE03991F484FF4807217
:10353C0002F070FCD7E71F49CA6822F00102CA608A
:10354C0001F094FB174A0023C2E90D33D36302F058
:10355C006BF9002384F82C32AFE50023A4F8D031AA
:10356C0001F04EFF01F082FB002394F8CD2184F88A
:10357C00C731A4F8FC3184F8DC31B9E62379122B7D
:10358C007FF400AC627895F828309A42BFF40CAC0A
:10359C00FFF7F8BB084B2B60FFF7E9BB074B2B6021
:1035AC00FFF7E5BB002C0140840700200000002041
:1035BC00007C00080044014000F8000800F80108F5
:1035CC00F0B5604CD4E90002101A6FF4487240F266
:1035DC00765382189A4283B02AD85B4E5B4D0023F7
:1035EC0033802B78002B3CD06B780146ABB9AB7891
:1035FC00002B00F08E80A888554F01333988AB70B2
:10360C00FEF7A8F8322866D900223B882A706A781F
:10361C00AB804AB1D4E90031C91A40F2E143994276
:10362C004DD9AB794B2B77D80023A868338004E0B5
:10363C004649484B886800221A804749474A0B88FC
:10364C001268A0EB030C944503DD13440B8003B00C
:10365C00F0BD1C1AA242BABF9B1A0B80088003B0A3
:10366C00F0BD3F4A947C74B13E4A128890421AD8FD
:10367C003D494FF47A7409880094FEF749F8A86024
:10368C0000233380D9E7324B1A88374B198840F224
:10369C00FF7300932F23FEF73BF83028CEBFA860B2
:1036AC00AC602046ECE72A4B511C1A884FF4FA63A5
:1036BC00009340F2E933FEF72BF8A860E0E72A48C4
:1036CC00AB790288C2EBC20201331144DBB2C908E8
:1036DC00AB710180A6E73B886268C3EBC30123682A
:1036EC00D31AAA780B44C3F3CF03322A3B808ED96A
:1036FC00193B9BB23B80A3F2D663194A03EBD373FD
:10370C005B1082F8213001236B7000F0DDFA3B88EE
:10371C007DE780B2A8806FE7134A114913881933EB
:10372C009BB21380A3F2EE2303EBD3735B10002444
:10373C0081F820302C70FEF769FAAC7100F0F4FAC5
:10374C0072E700BF84070020040700205407002004
:10375C0012000020F8060020C4060020BC03002044
:10376C00FC0400201400002010000020514BF0B588
:10377C00514F1968002544F6206E1A46A7F804E04C
:10378C0003F17804AC462E4652F8043F8B42A3EB6F
:10379C000100194606D070453CBF1FFA80FE012679
:1037AC00844401259442EFD1002E3ED0A7F804E0CA
:1037BC00424A4348FDB113784FEA5C15012BC560B2
:1037CC0045D0404C2378012B32D011780B4311D1CA
:1037DC000EF1FF31022945D83B2D0BD83A493B4C11
:1037EC000B7001233A4913700E22227020220374AD
:1037FC00BA710B70F0BD1378C560012BE1D10EF1DD
:10380C00FF33022B48D9AEF10403042BD9D8012382
:10381C00137003222D4902742B4C2D4A2370072060
:10382C00087013702021B971F0BD44F6206EBFE70B
:10383C00AEF1C90292B244F656518A42DAD8224904
:10384C00234A1370772008700221B971F0BD0EF174
:10385C00FF33022B19D83B2D1ED91A4C2378012B80
:10386C00B3D1F0BDAEF10403042B02D8632DC1D843
:10387C00CDE7AEF1C9039BB244F656529342B9D888
:10388C0001231149124A2370DBE7AEF10403042B28
:10389C0097D8632DE1D8BAE70D4E0B4C0B49012399
:1038AC00337003741370002323700E230B702023CA
:1038BC00BB7186E784070020BC030020BE050020F6
:1038CC0054070020BF050020C6030020C7030020BA
:1038DC00F506002070B5504C237813B14F4B1B7874
:1038EC0033B94F4B1B78002B4FD0012B0AD070BD36
:1038FC004C4B1B78002B35D001F082FA4A4B02223C
:10390C001A7070BD454B1B78002B31D1474D2B786D
:10391C00012B6FD0464B1B78012B62D02378002BE8
:10392C00E5D12B78002B3AD04249434B4A7C072AED
:10393C0036D81888052833D9404C4D69E06F246877
:10394C000132D2B22844001B082A4A74486127D19C
:10395C00C0F3CF023A4CC0F3CF101518101A2581C2
:10396C0008831DE001F086FA2F4B01221A7070BDFE
:10397C002C4B1B787BB1334B1888FDF747FEFDF7BA
:10398C00D9FBBDE8704001F03BBAFFF7EFFEBDE894
:10399C00704001F035BABDE8704001F06BBA264BAF
:1039AC00294C208830B9234A127842BB1A8801323C
:1039BC001A8070BD40F2DC52002690421E8096D9CF
:1039CC001C4D698BFDF7C6FE32281ED82B7F0133A8
:1039DC00DBB2322B2B7701D96E7896B123886B83AF
:1039EC0070BD01F091FA164B88B103229A7101F067
:1039FC0007FA93E7FDF79EFB01F002FA8AE71880BD
:103A0C0070BD00F0C1F901232B702E77E6E702227E
:103A1C009A71FFF7D5FDEAE7D806002015070020BC
:103A2C00F506002080070020EC060020BE050020D3
:103A3C00BF05002054070020F80600208407002052
:103A4C00BC030020AC060020C60600200B28034B4C
:103A5C0028BF0B2040001870704700BF7107002072
:103A6C002DE9F84F354C364EDFF8D880032001F0A5
:103A7C0005FD04F17C07002318E094F83550324919
:103A8C00DFF8C8B0C3EBC310F7224FF47A6A0CEB23
:103A9C00400080B212FB05A24DBBC1E90D55CD63B0
:103AAC00FDF76AFE2B460234A74211D094F834C0BD
:103ABC004FF000094AF6AA22BCF1FF0FC8F800200B
:103ACC00A6F80090D9D102340133A742DBB2EDD174
:103ADC0001F096FC1E481C4A00881A490023936288
:103AEC00D0624AF6AA2233800A60BDE8F88FBBFB8D
:103AFC00F2FA4FF00A0E174A174DB2FBFAF290B2D7
:103B0C00C1F828E0C8622A7800FB02F2FE2010FB04
:103B1C0003C0124B83FB0232114BB3FBFAFA114B6D
:103B2C000AFB00F0D20AA3FB0030C1E90D22CA63E4
:103B3C00C0F34F10FDF720FE4B46B4E7FC04002009
:103B4C000407002000300040002C0140C0D8A70022
:103B5C0004000020001BB7007107002057EAE06842
:103B6C00A08601001F85EB5110B572B61A4B93F865
:103B7C003030FF2B07D0FFF773FF184A184B128811
:103B8C00DA6262B610BD164C164B41F28732E26215
:103B9C001B78E363C4E90D33032001F06FFC37237A
:103BAC00A362C820FDF7E8FD052001F067FC28237F
:103BBC00A362C820FDF7E0FD062001F05FFC19238D
:103BCC00A362C820FDF7D8FD01F01AFC064A0023B9
:103BDC00A3621380D1E700BFFC0400200400002086
:103BEC00002C0140710700200407002070B5164C12
:103BFC0041F28733E36272B6144D154B3C224AF600
:103C0C00AA262E60A2621B78E363C4E90D3301205F
:103C1C0001F034FC4B20FDF7AFFD5023A3624B2089
:103C2C00FDF7AAFD5A23A3624B202E60FDF7A4FDDD
:103C3C0001F0E6FB074A084912880023A3620B80B7
:103C4C00E26262B670BD00BF002C01400030004043
:103C5C0071070020040000200407002010B572B684
:103C6C00144C154A154B4AF6AA2141F28730E062F2
:103C7C0011605022A2621B78E363C4E90D33032068
:103C8C0001F0FCFB6420FDF777FD4623A362642062
:103C9C00FDF772FD2823A3626420FDF76DFD01F092
:103CAC00AFFB074A074912880023A3620B80E2622C
:103CBC0062B610BD002C014000300040710700209E
:103CCC00040000200407002010B5124C124B41F2E6
:103CDC0087313222E162A2621B78E363C4E90D33BF
:103CEC00022001F0CBFB9620FDF746FD0B4A4AF66D
:103CFC00AA211E2311609620A362FDF73DFD01F061
:103D0C007FFB074A074912880023A3620B80E262FB
:103D1C0010BD00BF002C0140710700200030004096
:103D2C00040000200407002010B5124C124B41F285
:103D3C0087312822E162A2621B78E363C4E90D3368
:103D4C00022001F09BFB9620FDF716FD0B4A4AF66C
:103D5C00AA21502311609620A362FDF70DFD01F0FE
:103D6C004FFB074A074912880023A3620B80E262CB
:103D7C0010BD00BF002C0140710700200030004036
:103D8C0004000020040700202DE9F041154D41F2FC
:103D9C008733EB6272B6144BDFF850801B78144FEC
:103DAC00EB63C5E90D3377244AF6AA26A7FB04304A
:103DBC000009C8F8006001F061FB63100A33AB62C4
:103DCC000A20023CFDF7D8FC631CEFD101F018FB74
:103DDC00084A094912880023AB620B80EA6262B67A
:103DEC00BDE8F081002C014071070020003000403C
:103DFC00CDCCCCCC0400002004070020002103E033
:103E0C000B4B5B58435004310A480B4B42189A42F7
:103E1C00F6D30A4A02E0002342F8043B084B9A42CC
:103E2C00F9D301F0CFFD01F0D1FFFEF78DFF704704
:103E3C00985E000800000020CC030020CC0300207A
:103E4C00A0080020FEE70000836861F30003836094
:103E5C00704700BF4FF080730360704743680A7867
:103E6C0062F30823436083684A7862F341038360FA
:103E7C0083688A7862F3CB238360CB78C26A013B78
:103E8C0063F31752C2627047836861F3082383603F
:103E9C00704700BF836843F008038360704700BF1E
:103EAC008068C0F3C0007047836843F004038360EC
:103EBC00704700BF8068C0F38000704710B41129B0
:103ECC0017D8DFE811F0120079007E00830088001B
:103EDC008D00920097009C00A100A600AB00B000E2
:103EEC00B500BA00BF00C4007400046963F3020497
:103EFC000461013A0F2A0DD8DFE802F00E13181DE9
:103F0C0022272C31363B40454A4F5408C36A61F393
:103F1C00D333C36210BC7047436B61F30403436338
:103F2C00F8E7436B61F349134363F3E7436B61F3C6
:103F3C008E234363EEE7436B61F3D3334363E9E7CB
:103F4C00436B61F318534363E4E7436B61F35D63C5
:103F5C004363DFE7036B61F304030363DAE7036B8B
:103F6C0061F349130363D5E7036B61F38E2303639A
:103F7C00D0E7036B61F3D3330363CBE7036B61F3DC
:103F8C0018530363C6E7036B61F35D630363C1E717
:103F9C00C36A61F30403C362BCE7C36A61F34913E8
:103FAC00C362B7E7C36A61F38E23C362B2E7C46826
:103FBC0063F35754C4609CE7046963F3C50404615C
:103FCC0097E7046963F38814046192E7046963F367
:103FDC004B2404618DE7046963F30E34046188E7B4
:103FEC00046963F3D134046183E7046963F3944493
:103FFC0004617EE7046963F35754046179E704694B
:10400C0063F31A64046174E7046963F3DD640461A7
:10401C006FE7C46863F30204C4606AE7C46863F3BF
:10402C00C504C46065E7C46863F38814C46060E7C2
:10403C00C46863F34B24C4605BE7C46863F30E3459
:10404C00C46056E7C46863F3D134C46051E7C468F4
:10405C0063F39444C4604CE7836807298CBF43F036
:10406C0000736FF359638360836861F35343836018
:10407C00836862F314538360704700BF024B9A68E5
:10408C0060F3D7529A60704700240140836861F353
:10409C0096538360704700BF20B9034BDA6961F314
:1040AC000002DA61704700BF0000014010B41249F1
:1040BC000B6843F001030B600B689B07FCD54B6846
:1040CC000D4A6FF301034B60536813F00C0FC3F3ED
:1040DC008101F9D1136823F0867323F480331360C4
:1040EC0041F610744FF480104FF41F035160D462EA
:1040FC00106310BC9360704700100240030C03F176
:10410C00804303F5043300F01F001A68012303FAFF
:10411C0000F030EA02030CBF01200020704700BF02
:10412C00030C03F1804303F5043301291A6800F0F2
:10413C001F0006D0012101FA00F022EA00001860ED
:10414C00704701FA00F0104318607047030C03F13C
:10415C00804303F5043301291A6800F01F0006D0D0
:10416C00012101FA00F022EA00001860704701FA00
:10417C0000F0104318607047042809D8DFE800F0FD
:10418C00090F151B03000F4B5A6A61F300025A62A8
:10419C0070470C4B1A6861F300021A607047094BA8
:1041AC001A6861F310421A607047064B1A6861F383
:1041BC0018621A607047034B1A6A61F300021A62A4
:1041CC00704700BF00100240024B5A6860F30712A0
:1041DC005A60704700100240024B5A6860F30A2282
:1041EC005A60704700100240024B5A6860F3CD22AF
:1041FC005A60704700100240054B5A6860F38F32CA
:10420C005A605A68C0F3800060F31C725A607047A1
:10421C0000100240134BA0B95A6860F31042844658
:10422C005A60104B5A6861F395425A605A68C1F350
:10423C00011060F35E725A60DA6A6CF31A62DA6229
:10424C0070475A6842F480325A605A6801280BBF92
:10425C006FF3514242F400324FF0020C4FF0000C5D
:10426C005A60DEE700100240024B5A6860F301020C
:10427C005A60704700100240024B5868C0F381002E
:10428C00704700BF0010024038B53F4D6B6813F00B
:10429C000C0F0446C3F3810228D0022A2FD03B4BCB
:1042AC00236039483A4A41683A4DC1F30311515CD5
:1042BC00CB4063604168C1F302211144097C23FAAD
:1042CC0001F1E1604168C1F3C221695CCB40A3609C
:1042DC0045684168C5F30070C1F3813141EA800142
:1042EC000A44127EB3FBF2F3236138BD6B6D980563
:1042FC00D5D52B6B9901D2D5274B2360D1E76968B3
:10430C00EB6A002BC1F300411DDAEA6AEB6AC2F3D7
:10431C00031CEA6AC3F3082302F0070269B3696855
:10432C001E4811F4003F194908BF08460021A3FBA1
:10433C00000503FB01F10CFA02F20023FCF7C0FEAE
:10434C0003462060ADE76B686A6812F0C04FC3F398
:10435C008343C2F341700CD10F2B0AD0023319B135
:10436C00094A526892030AD50C4800FB03F32360F8
:10437C0097E7013303EB0013F1E70848D7E703484D
:10438C0000FB03F323608CE70010024000127A005C
:10439C00585E0008685E0008006CDC0200093D00F5
:1043AC00012805D0054B5A6D6FF305125A657047FD
:1043BC00024A536D43F030035365704700100240BE
:1043CC0010B404680C490022C3B26FF300040460FB
:1043DC00083B026042608260C260A2F13332A2FBF1
:1043EC0003231B09486810BC9B000F2202FA03F33D
:1043FC0003434B60704700BF00000240036861F349
:10440C0000030360704700BF034B1B68034214BFDB
:10441C0001200020704700BF000002400023C0E9CB
:10442C000033C0E902330382704700BF03684BF6C8
:10443C00EF721340036002680B8913430360036837
:10444C004A7C62F30D3303600368CA7B62F38B23EF
:10445C00036003688A7B62F30923036003684A7B69
:10446C0062F3C713036003680A7B62F3861303606D
:10447C000A7C036862F345130360D1E9002310B48E
:10448C004C894460826010BCC3607047014BD8609B
:10449C00704700BF00200240024B0349034A596099
:1044AC005A6070470020024023016745AB89EFCD6D
:1044BC00024A136943F080031361704700200240E5
:1044CC001B4A136943F0020313615061136943F0F3
:1044DC0040031361D368D90704D4D3685B0720D594
:1044EC00012011E04FF08043D168C80712D4D16885
:1044FC00490713D4D268D20603F1FF334CBF022014
:10450C000320002B08BF0420094B1A696FF34102EA
:10451C001A617047013BE7D10420F5E7013B01200C
:10452C00EFE7D36813F0100F14BF02200320EBE762
:10453C0000200240194A136943F001031361016022
:10454C00D368D90704D4D3685B0720D5012011E0C8
:10455C004FF48013D168C80712D4D168490713D41B
:10456C00D268D20603F1FF334CBF02200320002B8C
:10457C0008BF0420094B1A696FF300021A617047D7
:10458C00013BE7D10420F5E7013B0120EFE7D368BD
:10459C0013F0100F14BF02200320EBE700200240A1
:1045AC000B88002B43D02DE9F0434FF0000E03266F
:1045BC0001251FFA8EFC4FEA4C0213F0010F06FA8C
:1045CC0002F705FA0CF80EF1010E2CD0046824EA5F
:1045DC00070404608C79D0F80090944044EA0904F4
:1045EC000460446824EA080444600C79D0F8048020
:1045FC0004FA0CFC4CEA08044460846824EA0704BE
:10460C008460CC79D0F808C0944044EA0C048460EF
:10461C00C46824EA0707C76091F805C0C4680CFA9F
:10462C0002F22243C2605B08C3D1BDE8F08370473D
:10463C0001F007039B00C90802FA03F20BD0416A90
:10464C004FF00F0C0CFA03F321EA03034362436AA5
:10465C001A4342627047016A4FF00F0C0CFA03F3D5
:10466C0021EA03030362036A1A430262704700BF24
:10467C001F4BDB68C3F3022300B5C3F1070EBEF179
:10468C00040F03F1040C28BF4FF0040EBCF1060F0D
:10469C0021D9033B4FF0FF3C0CFA03FC22EA0C023D
:1046AC004FF0FF3C0CFA0EFC21EA0C01994000285B
:1046BC0041EA020112DB0F4A09011318C9B283F84F
:1046CC0000130123410900F01F0003FA00F042F827
:1046DC0021005DF804FB00221346E1E7064B00F0D5
:1046EC000F0009010344C9B219765DF804FB00BF41
:1046FC0000ED00E000E100E0FCEC00E008B52E4B22
:10470C0098421CD02D4B984223D02D4B98422AD046
:10471C002C4B984209D02C4B98422ED02B4B9842C4
:10472C0035D02B4B98423CD008BD2A480121FFF7CD
:10473C000DFDBDE8084027480021FFF707BD2648BE
:10474C000121FFF703FDBDE8084023480021FFF7D6
:10475C00FDBC22480121FFF7F9FCBDE808401F48C9
:10476C000021FFF7F3BC1E480121FFF7EFFCBDE869
:10477C0008401B480021FFF7E9BC1A480121FFF74C
:10478C00E5FCBDE8084017480021FFF7DFBC1648E0
:10479C000121FFF7DBFCBDE8084013480021FFF7BF
:1047AC00D5BC12480121FFF7D1FCBDE808400F48E9
:1047BC000021FFF7CBBC00BF002C014000040040DF
:1047CC000010004000200040004001400044014027
:1047DC0000480140080010000B000C000100100004
:1047EC000400100010000C0011000C0012000C0052
:1047FC00036861F3C7130360704700BF062909D82B
:10480C00DFE801F013080E0809080400C36962F31D
:10481C00CB23C3617047C36962F3C303C3617047A1
:10482C00836962F3CB2383617047836962F3C303AB
:10483C0083617047062909D8DFE801F0090E1318C7
:10484C001D220400036A62F30C3303627047036A8F
:10485C0062F3000303627047036A62F3820303622C
:10486C007047036A62F3041303627047036A62F3CE
:10487C00861303627047036A62F30823036270476E
:10488C00036A62F38A230362704700BF2DE9F0418B
:10489C0086B0054601A817461E468846FFF7F4FC6D
:1048AC00DDE90334114A954208BF1C4604EB84042D
:1048BC006400B4FBF8F10E4CA4FB0134E40804EBE7
:1048CC008403A1EB43010429AB6888BF0134A4B273
:1048DC0064F30F03AB60EB6867F30C33EB602B698D
:1048EC0066F30D332B6106B0BDE8F0810038014052
:1048FC00CDCCCCCCC36861F34D33C360704700BFE3
:10490C00C36861F3C303C360704700BFC36861F33E
:10491C008203C360704700BF436961F3C7134361EF
:10492C00704700BF436961F3C3034361704700BF25
:10493C00064B0748B3F806C00649074AA0F800C062
:10494C0018885B8808801380704700BF74070020AC
:10495C001A0700201E0700209006002030B54023C7
:10496C0087B0002203214FF09040FCF781FF082311
:10497C00002203214FF09040FCF77AFF01214FF405
:10498C00A010FFF7CDFB3348334CFFF719FD01A8FE
:10499C00FFF744FD314B324A2E48019301A940F2F6
:1049AC0001234FF480250492ADF81430CDE9024573
:1049BC00FFF73CFD27480121FFF720FD0121294885
:1049CC00FFF7AEFB0720FFF717FC6846FFF742FA2C
:1049DC00254B264800936946FFF740FA03231946F6
:1049EC0022480122FFF76AFA2048032302220621FB
:1049FC00FFF764FA03231A461C481121FFF75EFAED
:104A0C000723042210211948FFF758FA0120FFF759
:104A1C0035FB012215480721FFF71EFB1348012126
:104A2C00FFF732FA11480121FFF70EFA0F48FFF792
:104A3C0031FA0E48FFF734FA0028FAD10B480B4C28
:104A4C00FFF732FA2046FFF735FA0028FAD107B003
:104A5C0030BD00BF08000240740700204C24014008
:104A6C0000010101090018000101000400240140AB
:104A7C0048F2E80303FB00F00028B8BF00F6FF7013
:104A8C00054B0013C0F5485083FB0023C017A0EB67
:104A9C00E300193000B27047310CC330FEE700BFA1
:104AAC00FEE700BFFEE700BFFEE700BF704700BF98
:104ABC00704700BF704700BF704700BF10B50220A1
:104ACC00FFF7A2FC012800D010BD054C6060FFF779
:104ADC002FFF0820FFF798FC012808BF606010BD6D
:104AEC000000024008B5264B1B78002B39D14FF43F
:104AFC008040FFF789FC012811D04FF40050FFF7DC
:104B0C0083FC01281ED04FF40040FFF77DFC0128E8
:104B1C0000D008BD1B4B4FF480525A6008BD1A4B95
:104B2C001B78002BE9D0194A1649136A4FF48040C0
:104B3C0043F00203136248604FF40050FFF764FC2B
:104B4C000128E0D10F4B4FF480525A605A6C6FF32E
:104B5C0000025A64FEF7BEFE0D4B4FF400421A6180
:104B6C00D1E7084B4FF480525A605A6C6FF3000235
:104B7C005A64FEF7AFFE064B4FF400421A6108BDB3
:104B8C00BE05002000000240BF05002000040040CC
:104B9C000004014008B50D4A0D4B12685B6AB3EB7B
:104BAC00520F07D90B4B4FF400125A61BDE8084065
:104BBC00FDF7E6B800F052F8074B1B78834200D0A3
:104BCC0008BD044B4FF400125A6108BD9806002032
:104BDC00001000400004014029000020024B4FF659
:104BEC00FE721A61FDF70ABE00200040024B002243
:104BFC001A61FDF785B800BF00440140034B4FF626
:104C0C00FE714FF6FD7219611A6170470040014048
:104C1C00704700BF074B1A69910744BF4FF6FD72EE
:104C2C001A61044B1A69D20744BF4FF6FE721A611F
:104C3C00704700BF00040040064A0749136801335F
:104C4C0013604B691B0400D470474FF400434B6155
:104C5C00FDF7BEBC7C07002000040140024BD86964
:104C6C00C0F38070704700BF00000140044B1A680D
:104C7C004FF4001122F400121A605961704700BF02
:104C8C0000040140024A136843F400131360704798
:104C9C00000401400E4B1B68952B10D80D4AD369AC
:104CAC0023F00403D3610C4B0C4A1B78002B0CBF74
:104CBC004FF4001100215B059160D3607047FA2B13
:104CCC00F1D9044AD36943F00403D361EBE700BF85
:104CDC00980600200000014029000020000401403B
:104CEC002DE9F0430029B4BFCE1C0E4626F0030379
:104CFC00073383B023F0070300AFADEB030DB61001
:104D0C006D4688468146144600213246284601F0FD
:104D1C0081F8B8F1030F17DD4846291F002283786C
:104D2C0090F8038090F800E090F801C01B0443EA6F
:104D3C00086343EA0E03013243EA0C23964241F81E
:104D4C00043F00F10400EADC3E60FFF7A5FBC4F36E
:104D5C000903EBB100237B607B683A689A4211D956
:104D6C0078687B6804EB800055F82310FFF7E2FBB2
:104D7C000320FFF78BFB7B6801337B607A683B6811
:104D8C009A42EDD3FFF794FB0C37BD46BDE8F08398
:104D9C002046FFF795FBDDE7002A30DD531E072B7D
:104DAC0010B501F1010421D9031B022B1ED922F0ED
:104DBC00030E8E440B46441AD3F800C044F803C0CB
:104DCC0004337345F8D1940722F003030DD0CC5C67
:104DDC00C4545C1CA24208DD023311F804C000F874
:104DEC0004C09A4201DDCA5CC25410BD431E1A4471
:104DFC00201AC15C03F8011F9342FAD110BD704711
:104E0C0038B5164D164C6B6C6B642046FFF776FC70
:104E1C00144B41210B22A16122621A78A2624FF637
:104E2C00FF73E3626269104B002142F00102626180
:104E3C0003F8041B0D4A6162EA640D4A2B65137872
:104E4C00AB64E36843F40073E360236843F001034D
:104E5C0040F68B1223606A6438BD00BF000002402C
:104E6C0000040040C60300208007002034040040EA
:104E7C00C203002038B51D4D1D4C6B6C43F0100364
:104E8C006B642046FFF73AFC60210323194AA161A9
:104E9C0023621278184BA2624C210122E1621A7033
:104EAC0063691649164A43F001036361154BE964C3
:104EBC002A655B781733AB646B6C43F002036B644D
:104ECC006B6C43F008036B646B6C43F001036B6415
:104EDC00E36843F40073E360636C43F4004363647E
:104EEC00236843F00103236038BD00BF000002407B
:104EFC0000040040640700208007002034040040B8
:104F0C0030040020C6030020024B186900F010008A
:104F1C00704700BF00040048024810230122022100
:104F2C00FCF7B2BC0004004862B670471C4B40F260
:104F3C00531210B51A60FFF7B9F801210020FFF7E2
:104F4C001BF90120FFF7DAF801280446F9D10020FB
:104F5C001D21FFF75FF921460220FFF70DF91920FB
:104F6C00FFF7CCF801280446F9D10020FFF72CF903
:104F7C000020FFF739F90020FFF72EF92046FFF744
:104F8C000FFA0220FFF770F9FFF776F90228FBD130
:104F9C000020FFF705FABDE8104000F043BD00BF4C
:104FAC0000200240084B10B44CF6CC4245F255544C
:104FBC001C6003201A604FF47A614AF6AA225860EA
:104FCC0010BC99601A6070470030004038B53F48FB
:104FDC003F4C0121FFF7A4F80025682341F28731EB
:104FEC0046F66802E1622046A5622946A261E361A9
:104FFC000122FFF703FC204601220221FFF7FEFBF2
:10500C00012220460421FFF7F9FB20460121FFF77E
:10501C00EFFB636C2F48502262F30703636401219A
:10502C00FFF77EF82C4C2D480121FFF779F802236D
:10503C0019462A462046FCF71BFC2A46204601232B
:10504C000221FCF715FC80232A4602214FF09040E8
:10505C00FCF70EFC204602220121FFF7E9FA294653
:10506C0020460222FFF7E4FA022207214FF090407B
:10507C00FFF7DEFA2A464FF4806302214FF090408E
:10508C00FCF7F6FB2A464FF4007302214FF09040D8
:10509C00FCF7EEFB4FF480732A4602214FF0904050
:1050AC00FCF7E6FB02220A214FF09040FFF7C0FA12
:1050BC00022209214FF09040FFF7BAFABDE83840C0
:1050CC00022208214FF09040FFF7B2BA0B001800F3
:1050DC00002C0140110014000004004812001400C0
:1050EC002DE9F0474D4CFFF721FF102501214FF41E
:1050FC00A010FFF715F884F80B534FF40068C4F8B0
:10510C000080FFF763FF46480121FFF709F8454B84
:10511C0045484FF6FF774FF03B09DF620121C3F89A
:10512C002890FEF7FDFF414B32224FF0770ADA62EE
:10513C00C3F828A0302384F813334FF400232360E2
:10514C003B480121FEF7ECFF01214FF4C010FEF7A4
:10515C00E7FF00260223002203214FF09040FCF7CA
:10516C0087FB2023324603214FF09040FCF780FB55
:10517C0084F80C634FF48053236001213046FEF712
:10518C008BFF2C480121FEF7CBFF2B4B2B48DF620A
:10519C00C3F828A01A6842F080021A600121FEF7B9
:1051AC00BFFF274B4FF4FA72DA62C3F8289084F8E9
:1051BC0015634FF400132360DFF888902248012117
:1051CC00FEF7AEFF21480121FEF7AAFF2B4632461F
:1051DC0048460221FCF74CFB484601220421FFF70C
:1051EC0027FA01214FF4A010FEF79AFF184B40F656
:1051FC008A125A6484F80B53C4F80080A3F5FE336A
:10520C00DF629D621A6842F080021A601A6842F0EE
:10521C0001021A60BDE8F04700F06ABB00E100E053
:10522C0004001C000010004008001C00002000407E
:10523C001100140012001800004801401100180061
:10524C0000440140000400481200140001001C003E
:10525C0000000240014B5863704700BF002C014016
:10526C00014B9863704700BF002C0140014BD86381
:10527C00704700BF002C0140024A536943F0010300
:10528C0053617047002C0140024B0022DA625A62D3
:10529C00704700BF0004004010B5384C0122204676
:1052AC000021FFF7C7FA204601220221FFF7C2FABC
:1052BC00204601220421FFF7BDFA012211462046A7
:1052CC00FFF7B8FA204601220321FFF7B3FA204674
:1052DC0001220521FFF7AEFA2268294B294842F03A
:1052EC0001022260626C42F400426264626942F024
:1052FC00010262611968244A41F00101196059697F
:10530C0041F001015961D96821F00101D9600168AE
:10531C0041F001010160116841F001011160516916
:10532C00A3F5923341F0010151611A6842F0010278
:10533C001A605A6942F001025A61DA6842F00102BD
:10534C00A4F59434DA60FFF709FB01220021204612
:10535C00FFF770FA23680D4A43F001032021236004
:10536C0082F807138023136002F1C04202F50C523D
:10537C00136843F40043136010BD00BF002C0140C0
:10538C0000440140004801400010004000E100E0F2
:10539C0070B54FF0904420464FF4806300220121F9
:1053AC00FCF766FA4FF48060A0624FF4007320465D
:1053BC0000220121FCF75CFA4FF400700F4DA06243
:1053CC004FF48073204600220121FCF751FA02238E
:1053DC004FF480701946A06200222846FCF748FA68
:1053EC002846012300220221FCF742FA20468023A2
:1053FC00BDE8704000220221FCF73ABA00040048D4
:10540C0070B51D4E02230022012130464FF090440E
:10541C00FCF72EFA02204FF4806300220121B062C7
:10542C002046FCF725FA01234FF480601D461946EF
:10543C000022A0623046FCF71BFA4FF400730022E6
:10544C0029462046B562FCF713FA4FF4007180230D
:10545C000022A16220462946FCF70AFA8023A362A7
:10546C0000224FF4807329462046FCF701FA4FF4D2
:10547C008073A36270BD00BF000400480138F8B50A
:10548C00052845D8DFE810F045008400F900C3007A
:10549C002E010600BF4E01231D464FF090441946C5
:1054AC0000223046FCF7E4F94FF400730022294641
:1054BC002046B562FCF7DCF94FF400728023A2623F
:1054CC00294600222046FCF7D3F98023A361002251
:1054DC004FF4807329462046FCF7CAF9AE4A127D78
:1054EC004FF48073A3620223002A40F02F812946D7
:1054FC003046FCF7BDF90223B3624FF480630022FF
:10550C0002214FF09040FCF7B3F9A44BA44ADA61A6
:10551C00F8BD4FF090448023002201212046FCF777
:10552C00A7F980209B4DA0624FF4807300220121CB
:10553C002046FCF79DF901234FF480701946002298
:10554C00A06201262846FCF793F94FF40073002261
:10555C00AE6131462046FCF78BF98F4A127D4FF431
:10556C000073A3620223002A40F0FC8031462846D7
:10557C00FCF77EF90223AB624FF480630022022118
:10558C004FF09040FCF774F9844B864ADA61F8BD11
:10559C00804D4FF09044022300220121284602271F
:1055AC00FCF766F94FF48063002201212046AF62BC
:1055BC00FCF75EF901234FF480621946A26228467B
:1055CC0000220126FCF754F94FF400730022AE615F
:1055DC0031462046FCF74CF96F4A127D4FF40073AC
:1055EC00A3628023002A40F0C98031462046FCF794
:1055FC003FF98023A3624FF48073002202214FF005
:10560C009040FCF735F9654B674ADA61F8BD4FF00D
:10561C0090448023002201212046FCF729F98020A8
:10562C005C4DA0624FF48073002201212046FCF7F0
:10563C001FF94FF4807102230022A1622846012138
:10564C000226FCF715F94FF480630022AE610121AC
:10565C002046FCF70DF9504A127D4FF48063A3628B
:10566C000123002A40F0848019462846FCF700F9F3
:10567C000123AB624FF4007380E7464E01231D46B5
:10568C004FF09044194600223046FCF7F1F84FF4E5
:10569C000073002229462046B562FCF7E9F84FF466
:1056AC0000720223A2622946002230460227FCF730
:1056BC00DFF84FF480630022B76129462046FCF7DF
:1056CC00D7F8354A127D4FF48063A3628023002AF9
:1056DC005AD129462046FCF7CBF88023A3624FF41D
:1056EC0080730CE72B4D4FF09044022300220121D4
:1056FC0028460226FCF7BCF84FF4806300220121F7
:10570C002046AE62FCF7B4F84FF480628023A262AC
:10571C00012100222046FCF7ABF88023A361002274
:10572C004FF4807301212046FCF7A2F81A4A127D2F
:10573C004FF48073A362012372B919462846FCF713
:10574C0097F80123AB624FF4007356E70022194619
:10575C003046FCF78DF8D0E6002231462846FCF79F
:10576C0087F8F0E7002219462846FCF781F803E792
:10577C00002231462846FCF77BF87BE700223946AD
:10578C002046FCF775F836E7002239462046FCF730
:10579C006FF8A4E700040048FC040020000001405E
:1057AC00E5000040C5000040D500004070B51D4E1E
:1057BC0002230022012130464FF09044FCF758F8A8
:1057CC0002204FF4806300220121B0612046FCF7D7
:1057DC004FF801234FF480601D4619460022A06249
:1057EC003046FCF745F84FF400730022294620465A
:1057FC00B561FCF73DF84FF4007180230022A162E3
:10580C0020462946FCF734F88023A36100224FF48C
:10581C00807329462046FCF72BF84FF48073A36263
:10582C0070BD00BF0004004870B5284C227DBABB87
:10583C00274D022301212846FCF71AF80223AB62FC
:10584C0000224FF4806302214FF09040FCF710F8D7
:10585C00227D9ABB1E4D012319462846FCF708F8F9
:10586C000123AB624FF40073002202214FF09040F1
:10587C00FBF7FEFF227D8023CAB901214FF0904037
:10588C00FBF7F6FF4FF0904380229A62BDE8704020
:10589C004FF48073002202214FF09040FBF7E8BFD9
:1058AC0002230B4800221946FBF7E2FFC8E700224F
:1058BC0002214FF09040FBF7DBFFE7E704480123A0
:1058CC0000220221FBF7D4FFCCE700BFFC04002030
:1058DC0000040048054BDA696FF30002DA611862C4
:1058EC00DA6942F00102DA61704700BF0000024041
:1058FC0030B52B482B4D2C4C89B00121FEF710FCF8
:10590C002A480121FEF70CFC01214FF4A010FEF7F0
:10591C0007FC274B01A928464022CDE90123FEF7BD
:10592C003FFE002206212846FEF782FE2046FEF7A7
:10593C0047FD03A8FEF772FD1E4A1F4B2046CDE91A
:10594C0003321E4C1E4A002503A94FF48073CDE987
:10595C000523ADF81C50FEF769FD2B462A46204660
:10596C004FF4E131FEF792FF20460121FEF7C8FF0C
:10597C0020460121FEF7CAFF20460121FEF7D2FF87
:10598C0020460121FEF7C8FF20460121FEF7B2FF99
:10599C002A4603210A20FEF76BFE09B030BD00BF7A
:1059AC000E001800000400481C00024012001400F5
:1059BC0000010201C80400200438014000380140F5
:1059CC001000310030B414490B6843F001030B6034
:1059DC000B689B07FCD54B680F4A6FF301034B60B8
:1059EC00536813F00C0FC3F38101F9D113680B4802
:1059FC000B4C23F0867323F48033136041F610753F
:105A0C004FF480135160D56213634FF41F039360FE
:105A1C00846030BC704700BF0010024000ED00E015
:105A2C000010000810B5FEF727FC60B1022816D054
:105A3C002C482D4B2D495B682D4AC3F30313CB5CCB
:105A4C00D840106010BD284B5A6D9205F0D51A6BDA
:105A5C00244B284812F0007F08BF1846E9E7224B78
:105A6C005968DA6A002AC1F300411CDAD86ADC6A88
:105A7C00DA6AC0F3031EC4F3082402F0070259B318
:105A8C005B681D4813F4003F164B4FF0000108BF34
:105A9C0018460EFA02F20023A4FB000E04FB01F1DF
:105AAC00FBF70EFBC5E758685B6813F0C04FC0F3FB
:105ABC008340C3F341720BD10F2809D0023019B1C6
:105ACC00094B5B689B0309D50B4B03FB00F0B0E75C
:105ADC00013000EB0210F2E70748DAE7014B03FB59
:105AEC0000F0A6E700127A0000100240785E000871
:105AFC00C8030020006CDC0200093D002DE9F047D2
:105B0C00089E0D4604468846002B4DD18A42944689
:105B1C0068D9B2FA82F252B101FA02F3C2F1200151
:105B2C0020FA01F10CFA02FC41EA030894404FEA16
:105B3C001C45210CB8FBF5FE1FFA8CF705FB1E83E8
:105B4C0041EA03430EFB07F199420BD91CEB03030B
:105B5C000EF1FF3080F01E81994240F21B81AEF1B4
:105B6C00020E63445B1AA4B2B3FBF5F005FB1033D1
:105B7C0044EA034400FB07F7A7420AD91CEB0404D0
:105B8C0000F1FF3380F00881A74240F205816444A4
:105B9C000238E41B40EA0E4000211EB1D440002321
:105BAC00C6E90043BDE8F0878B4208D9002E00F00F
:105BBC00EE800021C6E900050846BDE8F087B3FA7F
:105BCC0083F100294AD1AB4202D3824200F2F98020
:105BDC00841A65EB030301209846002EE2D0C6E937
:105BEC000048DFE702B9FFDEB2FA82F2002A40F089
:105BFC009180A1EB0C054FEA1C471FFA8CFE01218A
:105C0C00B5FBF7F307FB1350250C45EA00450EFBDB
:105C1C0003F0A84208D91CEB050503F1FF3802D2AA
:105C2C00A84200F2CB8043462D1AA4B2B5FBF7F084
:105C3C0007FB105544EA05440EFB00FEA64508D9A7
:105C4C001CEB040400F1FF3502D2A64500F2BB8028
:105C5C002846A4EB0E0440EA03409EE7C1F120075E
:105C6C008B4022FA07FC4CEA030C20FA07F405FAE5
:105C7C0001F31C43FD404FEA1C4900FA01F3B5FB4C
:105C8C00F9F8200C1FFA8CFE09FB185540EA054563
:105C9C0008FB0EF0A84202FA01F20BD91CEB050529
:105CAC0008F1FF3A80F08880A84240F28580A8F184
:105CBC00020865442D1AA4B2B5FBF9F009FB105586
:105CCC0044EA054500FB0EFEAE4508D91CEB050564
:105CDC0000F1FF346CD2AE456AD90238654440EA13
:105CEC000840A0FB0294A5EB0E05A542C846A646AB
:105CFC0056D353D05EB1B3EB080265EB0E0505FA33
:105D0C0007F722FA01F3CD401F43C6E900750021C5
:105D1C00BDE8F087C2F1200320FA03F10CFA02FC73
:105D2C0025FA03F395400D434FEA1C471FFA8CFEEE
:105D3C00B3FBF7F107FB11302B0C43EA004301FBDB
:105D4C000EF0984204FA02F408D91CEB030301F19B
:105D5C00FF382FD298422DD9023963441B1AADB2A9
:105D6C00B3FBF7F007FB103345EA034500FB0EF3DA
:105D7C00AB4208D91CEB050500F1FF3816D2AB423B
:105D8C0014D902386544ED1A40EA014138E731462E
:105D9C00304607E78646E5E61846FAE64B45A9D2B3
:105DAC00B9EB020864EB0C0E0138A3E74046EAE7B6
:105DBC00204694E74146D1E7D0467BE7023B654459
:105DCC0032E7084609E76444023842E770B50D4DE6
:105DDC000D4C641BA4100026A64209D10B4D0C4C93
:105DEC0000F020F8641BA4100026A64205D170BD5B
:105DFC0055F8043B98470136EEE755F8043B9847B5
:105E0C000136F2E7905E0008905E0008905E000894
:105E1C00945E000802440346934200D1704703F895
:105E2C00011BF9E7F8B500BFF8BC08BC9E467047EB
:0C5E3C00F8B500BFF8BC08BC9E467047DB
:105E4800191B12131D1516171A090A0B1E0D0E0F12
:105E58000000000000000000010203040607080912
:105E6800000000000102030402040608020C0810E6
:105E780000000000000000000102030406070809F2
:085E880080FCFF7F0100000017
:045E900025110008D0
:045E940001110008F0
:105E9800007C000887138713780050005000D00753
:105EA8004C046C07DC0564004A0150009001C800EE
:105EB800010014004600DC05020105010101000093
:105EC800D43000000105010AE80300001027000093
:105ED800000000000A00000000000000640000004C
:105EE80000000000000000000000000000000000AA
:105EF8001027000050C30000B400D007D0070000EE
:105F0800B400B700BA00BD00C100C400C700CA0091
:105F1800CD00D000D300D600D900DC00E000E300BB
:105F2800E600E900EC00EF00F200F500F700FA00E7
:105F3800FD0000010301060109010B010E01110119
:105F48001301160119011B011E012001230125015E
:105F580028012A012C012F013101330135013801B3
:105F68003A013C013E01400142014401460147011A
:105F780049014B014D014E0150015101530154019A
:105F88005601570158015A015B015C015D015E0130
:105F98005F016001610162016301630164016501E0
:105FA80065016601660167016701670168016801AB
:105FB8006801680168016801680168016801670192
:105FC8006701670166016601650165016401630196
:105FD80063016201610160015F015E015D015C01B5
:105FE8005B015A01580157015601540153015101EF
:105FF80050014E014D014B01490147014601440141
:10600800420140013E013C013A01380135013301AA
:1060180031012F012C012A0128012501230120012A
:106028001E011B0119011601130111010E010B01BB
:106038000901060103010001FD00FA00F700F5005F
:10604800F200EF00EC00E900E600E300E000DC000D
:10605800D900D600D300D000CD00CA00C700C400C4
:10606800C100BD00BA00B700B400B100AE00AB007B
:10607800A700A400A1009E009B0098009500920034
:106088008F008C008800850082007F007C007900EA
:106098007600730071006E006B0068006500620096
:1060A8005F005D005A005700550052004F004D0038
:1060B8004A0048004500430040003E003C003900CB
:1060C80037003500330030002E002C002A0028004D
:1060D80026002400220021001F001D001B001A00BA
:1060E80018001700150014001200110010000E000F
:1060F8000D000C000B000A0009000800070006004C
:10610800050005000400030003000200020001006E
:106118000100010000000000000000000000000075
:106128000000000000000100010001000200020060
:10613800030003000400050005000600070008002E
:1061480009000A000B000C000D000E0010001100E1
:10615800120014001500170018001A001B001D007B
:106168001F00210022002400260028002A002C00FD
:106178002E00300033003500370039003C003E0067
:1061880040004300450048004A004D004F005200BF
:10619800550057005A005D005F0062006500680006
:1061A8006B006E0071007300760079007C007F0040
:1061B8008200850088008C008F009200950098006E
:1061C8009B009E00A100A400A700AB00AE00B10098
:1061D80050001E03030000000000000090010000B2
:1061E80000000000E80300000000000000000000BC
:1061F8000000000000000000204E0000A086010002
:106208006419000000000000010000000000000008
:106218003200000000000000000000000000000044
:10622800000000001027000050C300000102010018
:106238006E00D00764000500E803061432007800F9
:106248004B005A005A001E0002010000FA0000002C
:0C625800204E200050C3110700127A00F5
:107BE00048414B52435F4B5F463432310000000046
:107BF0000000000000000000000000000000000085
:0400000508003E09A8
:00000001FF
